{
  "contractName": "AdminContract",
  "abi": [
    {
      "anonymous": false,
      "inputs": [
        {
          "indexed": true,
          "internalType": "string",
          "name": "adminId",
          "type": "string"
        }
      ],
      "name": "AdminLogin",
      "type": "event"
    },
    {
      "anonymous": false,
      "inputs": [
        {
          "indexed": true,
          "internalType": "string",
          "name": "adminId",
          "type": "string"
        }
      ],
      "name": "AdminLogout",
      "type": "event"
    },
    {
      "anonymous": false,
      "inputs": [
        {
          "indexed": true,
          "internalType": "string",
          "name": "adminId",
          "type": "string"
        }
      ],
      "name": "AdminRegister",
      "type": "event"
    },
    {
      "inputs": [
        {
          "internalType": "string",
          "name": "",
          "type": "string"
        }
      ],
      "name": "adminIdToPassword",
      "outputs": [
        {
          "internalType": "string",
          "name": "",
          "type": "string"
        }
      ],
      "stateMutability": "view",
      "type": "function",
      "constant": true
    },
    {
      "inputs": [
        {
          "internalType": "string",
          "name": "adminId",
          "type": "string"
        },
        {
          "internalType": "string",
          "name": "password",
          "type": "string"
        }
      ],
      "name": "registerAdmin",
      "outputs": [],
      "stateMutability": "nonpayable",
      "type": "function"
    },
    {
      "inputs": [
        {
          "internalType": "string",
          "name": "adminId",
          "type": "string"
        },
        {
          "internalType": "string",
          "name": "password",
          "type": "string"
        }
      ],
      "name": "loginAdmin",
      "outputs": [
        {
          "internalType": "bool",
          "name": "",
          "type": "bool"
        }
      ],
      "stateMutability": "nonpayable",
      "type": "function"
    },
    {
      "inputs": [
        {
          "internalType": "string",
          "name": "adminId",
          "type": "string"
        }
      ],
      "name": "logoutAdmin",
      "outputs": [],
      "stateMutability": "nonpayable",
      "type": "function"
    }
  ],
  "bytecode": "0x608060405234801561001057600080fd5b50610726806100206000396000f3fe608060405234801561001057600080fd5b506004361061004c5760003560e01c806373d6027514610051578063901d032c14610066578063b30d735c1461008e578063f8f98b79146100ae575b600080fd5b61006461005f3660046104f9565b6100c1565b005b610079610074366004610536565b610102565b60405190151581526020015b60405180910390f35b6100a161009c3660046104f9565b610232565b60405161008591906105ca565b6100646100bc366004610536565b6102d7565b806040516100cf91906105fd565b604051908190038120907fdcac0a6c9a7f028115fbcfbde56999d4e8420539188bd98868af46ec67e7c5bc90600090a250565b6000808360405161011391906105fd565b9081526020016040518091039020805461012c90610619565b151590506101755760405162461bcd60e51b815260206004820152601160248201527018591b5a5b9259081b9bdd08199bdd5b99607a1b60448201526064015b60405180910390fd5b818051906020012060008460405161018d91906105fd565b9081526040519081900360200181206101a591610654565b6040518091039020146101eb5760405162461bcd60e51b815260206004820152600e60248201526d3830b9b9bbb7b9321032b93937b960911b604482015260640161016c565b826040516101f991906105fd565b604051908190038120907f661c56c74768a74f01f7ac41689ba8416931c67e0a2e3d0c90062a0ff579f97f90600090a250600192915050565b80516020818301810180516000825292820191909301209152805461025690610619565b80601f016020809104026020016040519081016040528092919081815260200182805461028290610619565b80156102cf5780601f106102a4576101008083540402835291602001916102cf565b820191906000526020600020905b8154815290600101906020018083116102b257829003601f168201915b505050505081565b6000826040516102e791906105fd565b9081526020016040518091039020805461030090610619565b1590506103485760405162461bcd60e51b815260206004820152601660248201527561646d696e496420616c72656164792065786973747360501b604482015260640161016c565b8060008360405161035991906105fd565b9081526020016040518091039020908051906020019061037a9291906103bd565b508160405161038991906105fd565b604051908190038120907ff7b97942b2ec0e07919dea020fa934292286cb740958d2a7d676b1eb5d47462390600090a25050565b8280546103c990610619565b90600052602060002090601f0160209004810192826103eb5760008555610431565b82601f1061040457805160ff1916838001178555610431565b82800160010185558215610431579182015b82811115610431578251825591602001919060010190610416565b5061043d929150610441565b5090565b5b8082111561043d5760008155600101610442565b634e487b7160e01b600052604160045260246000fd5b600082601f83011261047d57600080fd5b813567ffffffffffffffff8082111561049857610498610456565b604051601f8301601f19908116603f011681019082821181831017156104c0576104c0610456565b816040528381528660208588010111156104d957600080fd5b836020870160208301376000602085830101528094505050505092915050565b60006020828403121561050b57600080fd5b813567ffffffffffffffff81111561052257600080fd5b61052e8482850161046c565b949350505050565b6000806040838503121561054957600080fd5b823567ffffffffffffffff8082111561056157600080fd5b61056d8683870161046c565b9350602085013591508082111561058357600080fd5b506105908582860161046c565b9150509250929050565b60005b838110156105b557818101518382015260200161059d565b838111156105c4576000848401525b50505050565b60208152600082518060208401526105e981604085016020870161059a565b601f01601f19169190910160400192915050565b6000825161060f81846020870161059a565b9190910192915050565b600181811c9082168061062d57607f821691505b6020821081141561064e57634e487b7160e01b600052602260045260246000fd5b50919050565b600080835481600182811c91508083168061067057607f831692505b602080841082141561069057634e487b7160e01b86526022600452602486fd5b8180156106a457600181146106b5576106e2565b60ff198616895284890196506106e2565b60008a81526020902060005b868110156106da5781548b8201529085019083016106c1565b505084890196505b50949897505050505050505056fea2646970667358221220878e7904d05512ceaac0b4f847aa185fb68a2ff6a7b52ea11e13a5d9818b8f4a64736f6c63430008080033",
  "immutableReferences": {},
  "source": "// SPDX-License-Identifier: MIT\r\npragma solidity ^0.8.8;\r\n\r\ncontract AdminContract {\r\n    mapping(string => string) public adminIdToPassword;\r\n\r\n    event AdminRegister(string indexed adminId);\r\n    event AdminLogin(string indexed adminId);\r\n    event AdminLogout(string indexed adminId);\r\n\r\n    function registerAdmin(string memory adminId, string memory password) public {\r\n        if (bytes(adminIdToPassword[adminId]).length != 0) {\r\n            revert(\"adminId already exists\");\r\n        }\r\n\r\n        adminIdToPassword[adminId] = password;\r\n\r\n        emit AdminRegister(adminId);\r\n    }\r\n\r\n    function loginAdmin(string memory adminId, string memory password) public returns (bool) {\r\n        if(bytes(adminIdToPassword[adminId]).length == 0){\r\n            revert(\"adminId not found\");\r\n        }\r\n        if(keccak256(bytes(adminIdToPassword[adminId])) != keccak256(bytes(password))){\r\n            revert(\"password error\");\r\n        }\r\n\r\n        emit AdminLogin(adminId);\r\n        return true;\r\n    }\r\n\r\n    function logoutAdmin(string memory adminId) public {\r\n        emit AdminLogout(adminId);\r\n    }\r\n\r\n    // \r\n} ",
  "sourcePath": "D:\\\\\\\\blockChain\\contracts\\AdminContract.sol",
  "compiler": {
    "name": "solc",
    "version": "0.8.8+commit.dddeac2f.Emscripten.clang"
  },
  "schemaVersion": "3.4.16",
  "updatedAt": "2025-03-02T03:33:45.783Z",
  "networkType": "ethereum",
  "devdoc": {
    "kind": "dev",
    "methods": {},
    "version": 1
  },
  "userdoc": {
    "kind": "user",
    "methods": {},
    "version": 1
  }
}