{
  "contractName": "UserContract",
  "abi": [
    {
      "anonymous": false,
      "inputs": [
        {
          "indexed": false,
          "internalType": "string",
          "name": "userId",
          "type": "string"
        },
        {
          "indexed": false,
          "internalType": "string",
          "name": "role",
          "type": "string"
        }
      ],
      "name": "IdToRole",
      "type": "event"
    },
    {
      "anonymous": false,
      "inputs": [
        {
          "indexed": false,
          "internalType": "string",
          "name": "userId",
          "type": "string"
        }
      ],
      "name": "LoginUser",
      "type": "event"
    },
    {
      "anonymous": false,
      "inputs": [
        {
          "indexed": false,
          "internalType": "string",
          "name": "userId",
          "type": "string"
        }
      ],
      "name": "LogoutUser",
      "type": "event"
    },
    {
      "anonymous": false,
      "inputs": [
        {
          "indexed": false,
          "internalType": "string",
          "name": "userId",
          "type": "string"
        }
      ],
      "name": "PasswordReset",
      "type": "event"
    },
    {
      "anonymous": false,
      "inputs": [
        {
          "indexed": false,
          "internalType": "string",
          "name": "messageId",
          "type": "string"
        },
        {
          "indexed": false,
          "internalType": "string",
          "name": "senderId",
          "type": "string"
        },
        {
          "indexed": false,
          "internalType": "string",
          "name": "receiverId",
          "type": "string"
        }
      ],
      "name": "ReceiveMessage",
      "type": "event"
    },
    {
      "anonymous": false,
      "inputs": [
        {
          "indexed": false,
          "internalType": "string",
          "name": "userId",
          "type": "string"
        }
      ],
      "name": "RegisterUser",
      "type": "event"
    },
    {
      "anonymous": false,
      "inputs": [
        {
          "indexed": false,
          "internalType": "string",
          "name": "userId",
          "type": "string"
        },
        {
          "indexed": false,
          "internalType": "string",
          "name": "userOutId",
          "type": "string"
        }
      ],
      "name": "SetOutId",
      "type": "event"
    },
    {
      "anonymous": false,
      "inputs": [
        {
          "indexed": false,
          "internalType": "string",
          "name": "userOutId",
          "type": "string"
        },
        {
          "indexed": false,
          "internalType": "string",
          "name": "userId",
          "type": "string"
        }
      ],
      "name": "SetUserId",
      "type": "event"
    },
    {
      "inputs": [
        {
          "internalType": "string",
          "name": "id",
          "type": "string"
        },
        {
          "internalType": "string",
          "name": "role",
          "type": "string"
        },
        {
          "internalType": "string",
          "name": "identify",
          "type": "string"
        }
      ],
      "name": "idToRole",
      "outputs": [],
      "stateMutability": "nonpayable",
      "type": "function"
    },
    {
      "inputs": [
        {
          "internalType": "string",
          "name": "outId",
          "type": "string"
        },
        {
          "internalType": "string",
          "name": "id",
          "type": "string"
        }
      ],
      "name": "setOutId",
      "outputs": [],
      "stateMutability": "nonpayable",
      "type": "function"
    },
    {
      "inputs": [
        {
          "internalType": "string",
          "name": "id",
          "type": "string"
        }
      ],
      "name": "getOutId",
      "outputs": [
        {
          "internalType": "string",
          "name": "",
          "type": "string"
        }
      ],
      "stateMutability": "view",
      "type": "function",
      "constant": true
    },
    {
      "inputs": [
        {
          "internalType": "string",
          "name": "id",
          "type": "string"
        },
        {
          "internalType": "string",
          "name": "outId",
          "type": "string"
        }
      ],
      "name": "setUserId",
      "outputs": [],
      "stateMutability": "nonpayable",
      "type": "function"
    },
    {
      "inputs": [
        {
          "internalType": "string",
          "name": "outId",
          "type": "string"
        }
      ],
      "name": "getUserId",
      "outputs": [
        {
          "internalType": "string",
          "name": "",
          "type": "string"
        }
      ],
      "stateMutability": "view",
      "type": "function",
      "constant": true
    },
    {
      "inputs": [
        {
          "internalType": "string",
          "name": "id",
          "type": "string"
        },
        {
          "internalType": "string",
          "name": "password",
          "type": "string"
        },
        {
          "internalType": "string",
          "name": "privateKey",
          "type": "string"
        }
      ],
      "name": "registerUser",
      "outputs": [],
      "stateMutability": "nonpayable",
      "type": "function"
    },
    {
      "inputs": [
        {
          "internalType": "string",
          "name": "id",
          "type": "string"
        },
        {
          "internalType": "string",
          "name": "password",
          "type": "string"
        }
      ],
      "name": "loginUser",
      "outputs": [
        {
          "internalType": "bool",
          "name": "",
          "type": "bool"
        }
      ],
      "stateMutability": "nonpayable",
      "type": "function"
    },
    {
      "inputs": [
        {
          "internalType": "string",
          "name": "id",
          "type": "string"
        }
      ],
      "name": "logoutUser",
      "outputs": [],
      "stateMutability": "nonpayable",
      "type": "function"
    },
    {
      "inputs": [
        {
          "internalType": "string",
          "name": "messageId",
          "type": "string"
        },
        {
          "internalType": "string",
          "name": "senderId",
          "type": "string"
        },
        {
          "internalType": "string",
          "name": "receiverId",
          "type": "string"
        }
      ],
      "name": "receiveMessage",
      "outputs": [],
      "stateMutability": "nonpayable",
      "type": "function"
    },
    {
      "inputs": [
        {
          "internalType": "string",
          "name": "receiverId",
          "type": "string"
        }
      ],
      "name": "getMessagesByReceiver",
      "outputs": [
        {
          "internalType": "string[]",
          "name": "",
          "type": "string[]"
        },
        {
          "internalType": "string[]",
          "name": "",
          "type": "string[]"
        }
      ],
      "stateMutability": "view",
      "type": "function",
      "constant": true
    },
    {
      "inputs": [
        {
          "internalType": "string",
          "name": "id",
          "type": "string"
        }
      ],
      "name": "isValidUser",
      "outputs": [
        {
          "internalType": "bool",
          "name": "",
          "type": "bool"
        }
      ],
      "stateMutability": "view",
      "type": "function",
      "constant": true
    },
    {
      "inputs": [
        {
          "internalType": "string",
          "name": "id",
          "type": "string"
        }
      ],
      "name": "getUserRole",
      "outputs": [
        {
          "internalType": "string",
          "name": "role",
          "type": "string"
        }
      ],
      "stateMutability": "view",
      "type": "function",
      "constant": true
    },
    {
      "inputs": [
        {
          "internalType": "string",
          "name": "id",
          "type": "string"
        },
        {
          "internalType": "string",
          "name": "privateKey",
          "type": "string"
        },
        {
          "internalType": "string",
          "name": "newPasswordHash",
          "type": "string"
        }
      ],
      "name": "resetPassword",
      "outputs": [],
      "stateMutability": "nonpayable",
      "type": "function"
    }
  ],
  "bytecode": "0x608060405234801561001057600080fd5b50611425806100206000396000f3fe608060405234801561001057600080fd5b50600436106100cf5760003560e01c80638cd975fb1161008c578063d637dcfa11610066578063d637dcfa146101b1578063db1ef71f146101c4578063f02eb57f146101d7578063fb46270d146101ea57600080fd5b80638cd975fb14610178578063c71a70c01461018b578063c75328961461019e57600080fd5b80631a970dac146100d457806321fdec8a146100e957806322ce12e5146100fc578063357e129e1461012457806372718e60146101445780637fbb22ab14610165575b600080fd5b6100e76100e2366004611030565b6101fd565b005b6100e76100f7366004611094565b61026d565b61010f61010a366004611030565b6102a7565b60405190151581526020015b60405180910390f35b610137610132366004611094565b6103bc565b60405161011b919061112d565b610157610152366004611094565b610456565b60405161011b92919061119f565b6100e7610173366004611030565b610715565b61010f610186366004611094565b610779565b6100e76101993660046111cd565b6107ce565b6101376101ac366004611094565b61088d565b6100e76101bf3660046111cd565b61093d565b6101376101d2366004611094565b610b6a565b6100e76101e53660046111cd565b610b7c565b6100e76101f83660046111cd565b610dc2565b8160048260405161020e9190611255565b9081526020016040518091039020908051906020019061022f929190610ef4565b507ff216f6c35bb53f496ab2f522638de18a865f52955dc73aa1fee284b7d4293a958282604051610261929190611271565b60405180910390a15050565b7ffba26c653f428ff5cfb9dcef97ca2909eda38d1be3c84451b4529a2a918846ff8160405161029c919061112d565b60405180910390a150565b600080836040516102b89190611255565b908152602001604051809103902060020180546102d490611296565b1515905061030d5760405162461bcd60e51b81526020600482015260016024820152603560f81b60448201526064015b60405180910390fd5b81805190602001206000846040516103259190611255565b908152602001604051809103902060020160405161034391906112d1565b60405180910390201461037c5760405162461bcd60e51b81526020600482015260016024820152603360f81b6044820152606401610304565b7f268a9470e734b30e306394d766ade4b356d05feca890e568e155b292a01383ae836040516103ab919061112d565b60405180910390a150600192915050565b60606002826040516103ce9190611255565b9081526040519081900360200190205460ff16156104095750506040805180820190915260078152663a32b0b1b432b960c91b602082015290565b6003826040516104199190611255565b9081526040519081900360200190205460ff161561045157506040805180820190915260078152661cdd1d59195b9d60ca1b60208201525b919050565b606080600060018460405161046b9190611255565b90815260405190819003602001902054905060008167ffffffffffffffff81111561049857610498610f8d565b6040519080825280602002602001820160405280156104cb57816020015b60608152602001906001900390816104b65790505b50905060008267ffffffffffffffff8111156104e9576104e9610f8d565b60405190808252806020026020018201604052801561051c57816020015b60608152602001906001900390816105075790505b50905060005b838110156107095760018760405161053a9190611255565b908152602001604051809103902081815481106105595761055961136d565b9060005260206000209060020201600001805461057590611296565b80601f01602080910402602001604051908101604052809291908181526020018280546105a190611296565b80156105ee5780601f106105c3576101008083540402835291602001916105ee565b820191906000526020600020905b8154815290600101906020018083116105d157829003601f168201915b50505050508382815181106106055761060561136d565b60200260200101819052506001876040516106209190611255565b9081526020016040518091039020818154811061063f5761063f61136d565b9060005260206000209060020201600101805461065b90611296565b80601f016020809104026020016040519081016040528092919081815260200182805461068790611296565b80156106d45780601f106106a9576101008083540402835291602001916106d4565b820191906000526020600020905b8154815290600101906020018083116106b757829003601f168201915b50505050508282815181106106eb576106eb61136d565b6020026020010181905250808061070190611383565b915050610522565b50909590945092505050565b816005826040516107269190611255565b90815260200160405180910390209080519060200190610747929190610ef4565b507fb52f186378a4d575c59e333427e22909a593b62afaa608031c8d1734ada7c8b28183604051610261929190611271565b600060028260405161078b9190611255565b9081526040519081900360200190205460ff16806107c857506003826040516107b49190611255565b9081526040519081900360200190205460ff165b92915050565b6040805180820182528481526020810184905290516001906107f1908490611255565b90815260405160209181900382019020805460018101825560009182529082902083518051859460029094029092019261083092849290910190610ef4565b5060208281015180516108499260018501920190610ef4565b5050507f454f8fd0fe0c27af03d4d7ebfa69764fec4ed065d6fd3a8eca7151371f61ca9684848460405161087f939291906113ac565b60405180910390a150505050565b606060048260405161089f9190611255565b908152602001604051809103902080546108b890611296565b80601f01602080910402602001604051908101604052809291908181526020018280546108e490611296565b80156109315780601f1061090657610100808354040283529160200191610931565b820191906000526020600020905b81548152906001019060200180831161091457829003601f168201915b50505050509050919050565b60008360405161094d9190611255565b9081526020016040518091039020600201805461096990611296565b15905061099c5760405162461bcd60e51b81526020600482015260016024820152603160f81b6044820152606401610304565b6109a583610779565b6109d55760405162461bcd60e51b81526020600482015260016024820152601960f91b6044820152606401610304565b60405180608001604052808481526020016000856040516109f69190611255565b90815260200160405180910390206001018054610a1290611296565b80601f0160208091040260200160405190810160405280929190818152602001828054610a3e90611296565b8015610a8b5780601f10610a6057610100808354040283529160200191610a8b565b820191906000526020600020905b815481529060010190602001808311610a6e57829003601f168201915b5050505050815260200183815260200182815250600084604051610aaf9190611255565b90815260200160405180910390206000820151816000019080519060200190610ad9929190610ef4565b506020828101518051610af29260018501920190610ef4565b5060408201518051610b0e916002840191602090910190610ef4565b5060608201518051610b2a916003840191602090910190610ef4565b509050507f48c415eca16c8988ee5ce956bed45ecbbf00ec7da841bd95be931f06220af71f83604051610b5d919061112d565b60405180910390a1505050565b606060058260405161089f9190611255565b610b8583610779565b15610bb65760405162461bcd60e51b81526020600482015260016024820152603160f81b6044820152606401610304565b6040805180820190915260078152663a32b0b1b432b960c91b6020918201528251908301207f6b8570ae438f613c27a5ea74d32fb8afd8a51ddd9a30ee8b5a6231c438e1105a1415610c39576001600284604051610c149190611255565b908152604051908190036020019020805491151560ff19909216919091179055610cc3565b6040805180820190915260078152661cdd1d59195b9d60ca1b6020918201528251908301207f51e8ccf16b7d0bf6dbff3704faa1cc765b8473004eafd29e94bfe47167ff5e931415610c97576001600384604051610c149190611255565b60405162461bcd60e51b81526020600482015260016024820152600d60fa1b6044820152606401610304565b604051806080016040528084815260200182815260200160405180602001604052806000815250815260200160405180602001604052806000815250815250600084604051610d129190611255565b90815260200160405180910390206000820151816000019080519060200190610d3c929190610ef4565b506020828101518051610d559260018501920190610ef4565b5060408201518051610d71916002840191602090910190610ef4565b5060608201518051610d8d916003840191602090910190610ef4565b509050507f28290ae7fb9c4c146f8fb8716d08a65da7cafc20b415a8cf45ab522d9b1019928383604051610b5d929190611271565b600083604051610dd29190611255565b9081526040519081900360200190208054610dec90611296565b15159050610e205760405162461bcd60e51b81526020600482015260016024820152601960f91b6044820152606401610304565b8180519060200120600084604051610e389190611255565b9081526020016040518091039020600301604051610e5691906112d1565b604051809103902014610e8f5760405162461bcd60e51b81526020600482015260016024820152600d60fa1b6044820152606401610304565b80600084604051610ea09190611255565b90815260200160405180910390206002019080519060200190610ec4929190610ef4565b507fcfeaa8c72084fedd8799e393df0d841d93b1803d30ec219b98c7a82e357c64f783604051610b5d919061112d565b828054610f0090611296565b90600052602060002090601f016020900481019282610f225760008555610f68565b82601f10610f3b57805160ff1916838001178555610f68565b82800160010185558215610f68579182015b82811115610f68578251825591602001919060010190610f4d565b50610f74929150610f78565b5090565b5b80821115610f745760008155600101610f79565b634e487b7160e01b600052604160045260246000fd5b600082601f830112610fb457600080fd5b813567ffffffffffffffff80821115610fcf57610fcf610f8d565b604051601f8301601f19908116603f01168101908282118183101715610ff757610ff7610f8d565b8160405283815286602085880101111561101057600080fd5b836020870160208301376000602085830101528094505050505092915050565b6000806040838503121561104357600080fd5b823567ffffffffffffffff8082111561105b57600080fd5b61106786838701610fa3565b9350602085013591508082111561107d57600080fd5b5061108a85828601610fa3565b9150509250929050565b6000602082840312156110a657600080fd5b813567ffffffffffffffff8111156110bd57600080fd5b6110c984828501610fa3565b949350505050565b60005b838110156110ec5781810151838201526020016110d4565b838111156110fb576000848401525b50505050565b600081518084526111198160208601602086016110d1565b601f01601f19169290920160200192915050565b6020815260006111406020830184611101565b9392505050565b600082825180855260208086019550808260051b84010181860160005b8481101561119257601f19868403018952611180838351611101565b98840198925090830190600101611164565b5090979650505050505050565b6040815260006111b26040830185611147565b82810360208401526111c48185611147565b95945050505050565b6000806000606084860312156111e257600080fd5b833567ffffffffffffffff808211156111fa57600080fd5b61120687838801610fa3565b9450602086013591508082111561121c57600080fd5b61122887838801610fa3565b9350604086013591508082111561123e57600080fd5b5061124b86828701610fa3565b9150509250925092565b600082516112678184602087016110d1565b9190910192915050565b6040815260006112846040830185611101565b82810360208401526111c48185611101565b600181811c908216806112aa57607f821691505b602082108114156112cb57634e487b7160e01b600052602260045260246000fd5b50919050565b600080835481600182811c9150808316806112ed57607f831692505b602080841082141561130d57634e487b7160e01b86526022600452602486fd5b81801561132157600181146113325761135f565b60ff1986168952848901965061135f565b60008a81526020902060005b868110156113575781548b82015290850190830161133e565b505084890196505b509498975050505050505050565b634e487b7160e01b600052603260045260246000fd5b60006000198214156113a557634e487b7160e01b600052601160045260246000fd5b5060010190565b6060815260006113bf6060830186611101565b82810360208401526113d18186611101565b905082810360408401526113e58185611101565b969550505050505056fea26469706673582212206f997735794c2562592b448df849f3e9ec50a888532469617d208a48c70eef1464736f6c63430008080033",
  "immutableReferences": {},
  "source": "// SPDX-License-Identifier: MIT\r\npragma solidity ^0.8.8;\r\n\r\ncontract UserContract {\r\n    struct User {\r\n        string id;\r\n        string identify; // \r\n        string passwordHash;\r\n        string privateKey;\r\n    }\r\n\r\n    struct Message {\r\n        string messageId;\r\n        string senderId;\r\n    }\r\n    mapping(string => User) private users;\r\n    mapping(string => Message[]) private messagesByReceiver;\r\n    mapping(string => bool) private teacherIds;\r\n    mapping(string => bool) private studentIds;\r\n    mapping(string => string) private IdToOut;\r\n    mapping(string => string) private outToId;\r\n\r\n    event RegisterUser(string userId);\r\n    event LoginUser(string userId);\r\n    event LogoutUser(string userId);\r\n    event ReceiveMessage(string messageId, string senderId, string receiverId);\r\n    event IdToRole(string userId, string role);\r\n    event SetOutId(string userId, string userOutId);\r\n    event SetUserId(string userOutId, string userId);\r\n    event PasswordReset(string userId);\r\n\r\n    function idToRole(\r\n        string memory id, \r\n        string memory role,\r\n        string memory identify) public {\r\n        //\r\n        if (isValidUser(id)) {\r\n            revert(\"1\");\r\n        }\r\n        //\r\n        if (keccak256(bytes(role)) == keccak256(bytes(\"teacher\"))) {\r\n            teacherIds[id] = true;\r\n        } else if (keccak256(bytes(role)) == keccak256(bytes(\"student\"))) {\r\n            studentIds[id] = true;\r\n        } else {\r\n            revert(\"4\");\r\n        }\r\n        users[id] = User(id, identify, \"\", \"\");\r\n        emit IdToRole(id, role);\r\n    }// 4 ;1 \r\n    function setOutId(string memory outId, string memory id) public {\r\n        IdToOut[id] = outId;\r\n        emit SetOutId(outId, id);\r\n    }\r\n    function getOutId(string memory id) public view returns (string memory) {\r\n        return IdToOut[id];\r\n    }\r\n    function setUserId(string memory id, string memory outId) public {\r\n        outToId[outId] = id;\r\n        emit SetUserId(outId, id);\r\n    }\r\n    function getUserId(string memory outId) public view returns (string memory) {\r\n        return outToId[outId];\r\n    }\r\n    function registerUser(\r\n        string memory id, \r\n        string memory password, \r\n        string memory privateKey) public {\r\n        if (bytes(users[id].passwordHash).length != 0) {\r\n            revert(\"1\"); // \r\n        }\r\n        if (!isValidUser(id)) {\r\n            revert(\"2\"); // \r\n        }\r\n        \r\n        users[id] = User(id,users[id].identify, password, privateKey);\r\n\r\n        emit RegisterUser(id);\r\n    }// 1 ;2 \r\n\r\n    function loginUser(\r\n        string memory id, \r\n        string memory password) public returns (bool) {\r\n        if(bytes(users[id].passwordHash).length == 0){\r\n            revert(\"5\");\r\n        }else if(keccak256(bytes(users[id].passwordHash)) != keccak256(bytes(password))){\r\n            revert(\"3\");\r\n        }\r\n\r\n        emit LoginUser(id);\r\n        return true;\r\n    }// 5 ;3 \r\n    function logoutUser(string memory id) public {\r\n        emit LogoutUser(id);\r\n    }//\r\n\r\n    function receiveMessage(\r\n        string memory messageId, \r\n        string memory senderId, \r\n        string memory receiverId) public {\r\n        Message memory newMessage = Message(messageId, senderId);\r\n        messagesByReceiver[receiverId].push(newMessage);\r\n\r\n        emit ReceiveMessage(messageId, senderId, receiverId);\r\n    }//\r\n\r\n    function getMessagesByReceiver(string memory receiverId) public view returns (\r\n        string[] memory,\r\n        string[] memory) {\r\n        uint messageCount = messagesByReceiver[receiverId].length;\r\n        string[] memory messageIds = new string[](messageCount);\r\n        string[] memory senderIds = new string[](messageCount);\r\n\r\n        for (uint i = 0; i < messageCount; i++) {\r\n            messageIds[i] = messagesByReceiver[receiverId][i].messageId;\r\n            senderIds[i] = messagesByReceiver[receiverId][i].senderId;\r\n        }\r\n\r\n        return (messageIds, senderIds);\r\n    }//\r\n\r\n    function isValidUser(string memory id) public view returns (bool) {\r\n        return teacherIds[id] || studentIds[id];\r\n    }//\r\n    function getUserRole(string memory id) public view returns (string memory role) {\r\n        if (teacherIds[id]) {\r\n            role = \"teacher\";\r\n        } else if (studentIds[id]) {\r\n            role = \"student\";\r\n        }\r\n    }//\r\n    function resetPassword(string memory id, string memory privateKey, string memory newPasswordHash) public {\r\n        if (bytes(users[id].id).length == 0) {\r\n            revert(\"2\"); // \r\n        }\r\n        if (keccak256(bytes(users[id].privateKey)) != keccak256(bytes(privateKey))) {\r\n            revert(\"4\"); // \r\n        }\r\n\r\n        // \r\n        users[id].passwordHash = newPasswordHash;\r\n\r\n        emit PasswordReset(id);\r\n    }// 2 ;4 \r\n\r\n    // \r\n}",
  "sourcePath": "D:\\\\\\\\blockChain\\contracts\\userContract.sol",
  "compiler": {
    "name": "solc",
    "version": "0.8.8+commit.dddeac2f.Emscripten.clang"
  },
  "schemaVersion": "3.4.16",
  "updatedAt": "2025-03-02T03:33:45.789Z",
  "networkType": "ethereum",
  "devdoc": {
    "kind": "dev",
    "methods": {},
    "version": 1
  },
  "userdoc": {
    "kind": "user",
    "methods": {},
    "version": 1
  }
}